{
  "_format": "hh-sol-artifact-1",
  "contractName": "AventurerNFT",
  "sourceName": "contracts/AventurerNFT.sol",
  "abi": [
    {
      "inputs": [],
      "stateMutability": "nonpayable",
      "type": "constructor"
    },
    {
      "inputs": [
        {
          "internalType": "address",
          "name": "sender",
          "type": "address"
        },
        {
          "internalType": "uint256",
          "name": "tokenId",
          "type": "uint256"
        },
        {
          "internalType": "address",
          "name": "owner",
          "type": "address"
        }
      ],
      "name": "ERC721IncorrectOwner",
      "type": "error"
    },
    {
      "inputs": [
        {
          "internalType": "address",
          "name": "operator",
          "type": "address"
        },
        {
          "internalType": "uint256",
          "name": "tokenId",
          "type": "uint256"
        }
      ],
      "name": "ERC721InsufficientApproval",
      "type": "error"
    },
    {
      "inputs": [
        {
          "internalType": "address",
          "name": "approver",
          "type": "address"
        }
      ],
      "name": "ERC721InvalidApprover",
      "type": "error"
    },
    {
      "inputs": [
        {
          "internalType": "address",
          "name": "operator",
          "type": "address"
        }
      ],
      "name": "ERC721InvalidOperator",
      "type": "error"
    },
    {
      "inputs": [
        {
          "internalType": "address",
          "name": "owner",
          "type": "address"
        }
      ],
      "name": "ERC721InvalidOwner",
      "type": "error"
    },
    {
      "inputs": [
        {
          "internalType": "address",
          "name": "receiver",
          "type": "address"
        }
      ],
      "name": "ERC721InvalidReceiver",
      "type": "error"
    },
    {
      "inputs": [
        {
          "internalType": "address",
          "name": "sender",
          "type": "address"
        }
      ],
      "name": "ERC721InvalidSender",
      "type": "error"
    },
    {
      "inputs": [
        {
          "internalType": "uint256",
          "name": "tokenId",
          "type": "uint256"
        }
      ],
      "name": "ERC721NonexistentToken",
      "type": "error"
    },
    {
      "inputs": [],
      "name": "EnforcedPause",
      "type": "error"
    },
    {
      "inputs": [],
      "name": "ExpectedPause",
      "type": "error"
    },
    {
      "inputs": [
        {
          "internalType": "address",
          "name": "owner",
          "type": "address"
        }
      ],
      "name": "OwnableInvalidOwner",
      "type": "error"
    },
    {
      "inputs": [
        {
          "internalType": "address",
          "name": "account",
          "type": "address"
        }
      ],
      "name": "OwnableUnauthorizedAccount",
      "type": "error"
    },
    {
      "anonymous": false,
      "inputs": [
        {
          "indexed": true,
          "internalType": "address",
          "name": "owner",
          "type": "address"
        },
        {
          "indexed": true,
          "internalType": "address",
          "name": "approved",
          "type": "address"
        },
        {
          "indexed": true,
          "internalType": "uint256",
          "name": "tokenId",
          "type": "uint256"
        }
      ],
      "name": "Approval",
      "type": "event"
    },
    {
      "anonymous": false,
      "inputs": [
        {
          "indexed": true,
          "internalType": "address",
          "name": "owner",
          "type": "address"
        },
        {
          "indexed": true,
          "internalType": "address",
          "name": "operator",
          "type": "address"
        },
        {
          "indexed": false,
          "internalType": "bool",
          "name": "approved",
          "type": "bool"
        }
      ],
      "name": "ApprovalForAll",
      "type": "event"
    },
    {
      "anonymous": false,
      "inputs": [
        {
          "indexed": true,
          "internalType": "address",
          "name": "owner",
          "type": "address"
        },
        {
          "indexed": true,
          "internalType": "uint256",
          "name": "tokenId",
          "type": "uint256"
        },
        {
          "indexed": false,
          "internalType": "uint8",
          "name": "atk",
          "type": "uint8"
        },
        {
          "indexed": false,
          "internalType": "uint8",
          "name": "def",
          "type": "uint8"
        },
        {
          "indexed": false,
          "internalType": "uint8",
          "name": "hp",
          "type": "uint8"
        },
        {
          "indexed": false,
          "internalType": "uint256",
          "name": "timestamp",
          "type": "uint256"
        }
      ],
      "name": "AventurerMinted",
      "type": "event"
    },
    {
      "anonymous": false,
      "inputs": [
        {
          "indexed": false,
          "internalType": "string",
          "name": "newBaseURI",
          "type": "string"
        }
      ],
      "name": "BaseURIUpdated",
      "type": "event"
    },
    {
      "anonymous": false,
      "inputs": [
        {
          "indexed": true,
          "internalType": "address",
          "name": "previousOwner",
          "type": "address"
        },
        {
          "indexed": true,
          "internalType": "address",
          "name": "newOwner",
          "type": "address"
        }
      ],
      "name": "OwnershipTransferred",
      "type": "event"
    },
    {
      "anonymous": false,
      "inputs": [
        {
          "indexed": false,
          "internalType": "address",
          "name": "account",
          "type": "address"
        }
      ],
      "name": "Paused",
      "type": "event"
    },
    {
      "anonymous": false,
      "inputs": [
        {
          "indexed": true,
          "internalType": "address",
          "name": "from",
          "type": "address"
        },
        {
          "indexed": true,
          "internalType": "address",
          "name": "to",
          "type": "address"
        },
        {
          "indexed": true,
          "internalType": "uint256",
          "name": "tokenId",
          "type": "uint256"
        }
      ],
      "name": "Transfer",
      "type": "event"
    },
    {
      "anonymous": false,
      "inputs": [
        {
          "indexed": false,
          "internalType": "address",
          "name": "account",
          "type": "address"
        }
      ],
      "name": "Unpaused",
      "type": "event"
    },
    {
      "inputs": [
        {
          "internalType": "address",
          "name": "to",
          "type": "address"
        },
        {
          "internalType": "uint256",
          "name": "tokenId",
          "type": "uint256"
        }
      ],
      "name": "approve",
      "outputs": [],
      "stateMutability": "nonpayable",
      "type": "function"
    },
    {
      "inputs": [
        {
          "internalType": "address",
          "name": "owner",
          "type": "address"
        }
      ],
      "name": "balanceOf",
      "outputs": [
        {
          "internalType": "uint256",
          "name": "",
          "type": "uint256"
        }
      ],
      "stateMutability": "view",
      "type": "function"
    },
    {
      "inputs": [
        {
          "internalType": "uint256",
          "name": "tokenId",
          "type": "uint256"
        }
      ],
      "name": "getApproved",
      "outputs": [
        {
          "internalType": "address",
          "name": "",
          "type": "address"
        }
      ],
      "stateMutability": "view",
      "type": "function"
    },
    {
      "inputs": [
        {
          "internalType": "uint256",
          "name": "tokenId",
          "type": "uint256"
        }
      ],
      "name": "getAventurerStats",
      "outputs": [
        {
          "components": [
            {
              "internalType": "uint8",
              "name": "atk",
              "type": "uint8"
            },
            {
              "internalType": "uint8",
              "name": "def",
              "type": "uint8"
            },
            {
              "internalType": "uint8",
              "name": "hp",
              "type": "uint8"
            },
            {
              "internalType": "uint256",
              "name": "mintedAt",
              "type": "uint256"
            }
          ],
          "internalType": "struct AventurerNFT.Stats",
          "name": "",
          "type": "tuple"
        }
      ],
      "stateMutability": "view",
      "type": "function"
    },
    {
      "inputs": [
        {
          "internalType": "address",
          "name": "owner",
          "type": "address"
        },
        {
          "internalType": "address",
          "name": "operator",
          "type": "address"
        }
      ],
      "name": "isApprovedForAll",
      "outputs": [
        {
          "internalType": "bool",
          "name": "",
          "type": "bool"
        }
      ],
      "stateMutability": "view",
      "type": "function"
    },
    {
      "inputs": [
        {
          "internalType": "address",
          "name": "owner",
          "type": "address"
        },
        {
          "internalType": "uint256",
          "name": "tokenId",
          "type": "uint256"
        }
      ],
      "name": "isOwnerOf",
      "outputs": [
        {
          "internalType": "bool",
          "name": "",
          "type": "bool"
        }
      ],
      "stateMutability": "view",
      "type": "function"
    },
    {
      "inputs": [],
      "name": "mintAventurer",
      "outputs": [
        {
          "internalType": "uint256",
          "name": "",
          "type": "uint256"
        }
      ],
      "stateMutability": "nonpayable",
      "type": "function"
    },
    {
      "inputs": [],
      "name": "name",
      "outputs": [
        {
          "internalType": "string",
          "name": "",
          "type": "string"
        }
      ],
      "stateMutability": "view",
      "type": "function"
    },
    {
      "inputs": [],
      "name": "owner",
      "outputs": [
        {
          "internalType": "address",
          "name": "",
          "type": "address"
        }
      ],
      "stateMutability": "view",
      "type": "function"
    },
    {
      "inputs": [
        {
          "internalType": "uint256",
          "name": "tokenId",
          "type": "uint256"
        }
      ],
      "name": "ownerOf",
      "outputs": [
        {
          "internalType": "address",
          "name": "",
          "type": "address"
        }
      ],
      "stateMutability": "view",
      "type": "function"
    },
    {
      "inputs": [],
      "name": "pause",
      "outputs": [],
      "stateMutability": "nonpayable",
      "type": "function"
    },
    {
      "inputs": [],
      "name": "paused",
      "outputs": [
        {
          "internalType": "bool",
          "name": "",
          "type": "bool"
        }
      ],
      "stateMutability": "view",
      "type": "function"
    },
    {
      "inputs": [],
      "name": "renounceOwnership",
      "outputs": [],
      "stateMutability": "nonpayable",
      "type": "function"
    },
    {
      "inputs": [
        {
          "internalType": "address",
          "name": "from",
          "type": "address"
        },
        {
          "internalType": "address",
          "name": "to",
          "type": "address"
        },
        {
          "internalType": "uint256",
          "name": "tokenId",
          "type": "uint256"
        }
      ],
      "name": "safeTransferFrom",
      "outputs": [],
      "stateMutability": "nonpayable",
      "type": "function"
    },
    {
      "inputs": [
        {
          "internalType": "address",
          "name": "from",
          "type": "address"
        },
        {
          "internalType": "address",
          "name": "to",
          "type": "address"
        },
        {
          "internalType": "uint256",
          "name": "tokenId",
          "type": "uint256"
        },
        {
          "internalType": "bytes",
          "name": "data",
          "type": "bytes"
        }
      ],
      "name": "safeTransferFrom",
      "outputs": [],
      "stateMutability": "nonpayable",
      "type": "function"
    },
    {
      "inputs": [
        {
          "internalType": "address",
          "name": "operator",
          "type": "address"
        },
        {
          "internalType": "bool",
          "name": "approved",
          "type": "bool"
        }
      ],
      "name": "setApprovalForAll",
      "outputs": [],
      "stateMutability": "nonpayable",
      "type": "function"
    },
    {
      "inputs": [
        {
          "internalType": "string",
          "name": "baseURI",
          "type": "string"
        }
      ],
      "name": "setBaseURI",
      "outputs": [],
      "stateMutability": "nonpayable",
      "type": "function"
    },
    {
      "inputs": [
        {
          "internalType": "bytes4",
          "name": "interfaceId",
          "type": "bytes4"
        }
      ],
      "name": "supportsInterface",
      "outputs": [
        {
          "internalType": "bool",
          "name": "",
          "type": "bool"
        }
      ],
      "stateMutability": "view",
      "type": "function"
    },
    {
      "inputs": [],
      "name": "symbol",
      "outputs": [
        {
          "internalType": "string",
          "name": "",
          "type": "string"
        }
      ],
      "stateMutability": "view",
      "type": "function"
    },
    {
      "inputs": [
        {
          "internalType": "uint256",
          "name": "tokenId",
          "type": "uint256"
        }
      ],
      "name": "tokenURI",
      "outputs": [
        {
          "internalType": "string",
          "name": "",
          "type": "string"
        }
      ],
      "stateMutability": "view",
      "type": "function"
    },
    {
      "inputs": [],
      "name": "totalSupply",
      "outputs": [
        {
          "internalType": "uint256",
          "name": "",
          "type": "uint256"
        }
      ],
      "stateMutability": "view",
      "type": "function"
    },
    {
      "inputs": [
        {
          "internalType": "address",
          "name": "from",
          "type": "address"
        },
        {
          "internalType": "address",
          "name": "to",
          "type": "address"
        },
        {
          "internalType": "uint256",
          "name": "tokenId",
          "type": "uint256"
        }
      ],
      "name": "transferFrom",
      "outputs": [],
      "stateMutability": "nonpayable",
      "type": "function"
    },
    {
      "inputs": [
        {
          "internalType": "address",
          "name": "newOwner",
          "type": "address"
        }
      ],
      "name": "transferOwnership",
      "outputs": [],
      "stateMutability": "nonpayable",
      "type": "function"
    },
    {
      "inputs": [],
      "name": "unpause",
      "outputs": [],
      "stateMutability": "nonpayable",
      "type": "function"
    }
  ],
  "bytecode": "0x60806040523480156200001157600080fd5b50336040518060400160405280601581526020017f44756e67656f6e466c6970204176656e7475726572000000000000000000000081525060405180604001604052806004815260200163222320ab60e11b8152508160009081620000779190620001c6565b506001620000868282620001c6565b5050506001600160a01b038116620000b857604051631e4fbdf760e01b81526000600482015260240160405180910390fd5b620000c381620000cf565b50600160075562000292565b600680546001600160a01b038381166001600160a01b0319831681179093556040519116919082907f8be0079c531659141344cd1fd0a4f28419497f9722a3daafe3b4186f6b6457e090600090a35050565b634e487b7160e01b600052604160045260246000fd5b600181811c908216806200014c57607f821691505b6020821081036200016d57634e487b7160e01b600052602260045260246000fd5b50919050565b601f821115620001c157600081815260208120601f850160051c810160208610156200019c5750805b601f850160051c820191505b81811015620001bd57828155600101620001a8565b5050505b505050565b81516001600160401b03811115620001e257620001e262000121565b620001fa81620001f3845462000137565b8462000173565b602080601f831160018114620002325760008415620002195750858301515b600019600386901b1c1916600185901b178555620001bd565b600085815260208120601f198616915b82811015620002635788860151825594840194600190910190840162000242565b5085821015620002825787850151600019600388901b60f8161c191681555b5050505050600190811b01905550565b6117fa80620002a26000396000f3fe608060405234801561001057600080fd5b50600436106101585760003560e01c806370a08231116100c3578063a588915f1161007c578063a588915f146102ad578063b88d4fde14610301578063c5b8f77214610314578063c87b56dd14610342578063e985e9c514610355578063f2fde38b1461036857600080fd5b806370a082311461025e578063715018a6146102715780638456cb59146102795780638da5cb5b1461028157806395d89b4114610292578063a22cb4651461029a57600080fd5b806323b872dd1161011557806323b872dd146101f85780633f4ba83a1461020b57806342842e0e1461021357806355f804b3146102265780635c975abb146102395780636352211e1461024b57600080fd5b806301ffc9a71461015d57806306fdde0314610185578063081812fc1461019a578063095ea7b3146101c5578063143955c5146101da57806318160ddd146101f0575b600080fd5b61017061016b366004611255565b61037b565b60405190151581526020015b60405180910390f35b61018d6103cd565b60405161017c91906112c9565b6101ad6101a83660046112dc565b61045f565b6040516001600160a01b03909116815260200161017c565b6101d86101d3366004611311565b610488565b005b6101e2610497565b60405190815260200161017c565b6101e2610593565b6101d861020636600461133b565b6105a9565b6101d8610639565b6101d861022136600461133b565b61064b565b6101d8610234366004611403565b61066b565b600654600160a01b900460ff16610170565b6101ad6102593660046112dc565b6106ba565b6101e261026c36600461144c565b6106c5565b6101d861070d565b6101d861071f565b6006546001600160a01b03166101ad565b61018d61072f565b6101d86102a8366004611467565b61073e565b6102c06102bb3660046112dc565b610749565b60405161017c9190600060808201905060ff835116825260ff602084015116602083015260ff60408401511660408301526060830151606083015292915050565b6101d861030f3660046114a3565b610815565b610170610322366004611311565b6000908152600260205260409020546001600160a01b0390811691161490565b61018d6103503660046112dc565b61082d565b61017061036336600461151f565b6108e8565b6101d861037636600461144c565b610916565b60006001600160e01b031982166380ac58cd60e01b14806103ac57506001600160e01b03198216635b5e139f60e01b145b806103c757506301ffc9a760e01b6001600160e01b03198316145b92915050565b6060600080546103dc90611552565b80601f016020809104026020016040519081016040528092919081815260200182805461040890611552565b80156104555780601f1061042a57610100808354040283529160200191610455565b820191906000526020600020905b81548152906001019060200180831161043857829003601f168201915b5050505050905090565b600061046a82610954565b506000828152600460205260409020546001600160a01b03166103c7565b61049382823361098d565b5050565b60006104a161099a565b60078054600091826104b2836115a2565b91905055905060006104c482336109c5565b60008381526008602090815260409182902083518154928501519385015160ff908116620100000262ff0000199582166101000261ffff1990951691909216179290921792909216178155606082015160019091015590506105263383610abf565b805160208201516040808401519051859333937f2fa8bbcc6554b0395a51f077f68491c92bae22412b1bbf604818b05a56ce20dd9361058593429060ff9485168152928416602084015292166040820152606081019190915260800190565b60405180910390a350905090565b600060016007546105a491906115bb565b905090565b6001600160a01b0382166105d857604051633250574960e11b8152600060048201526024015b60405180910390fd5b60006105e5838333610ad9565b9050836001600160a01b0316816001600160a01b031614610633576040516364283d7b60e01b81526001600160a01b03808616600483015260248201849052821660448201526064016105cf565b50505050565b610641610bd2565b610649610bff565b565b61066683838360405180602001604052806000815250610815565b505050565b610673610bd2565b600961067f8282611614565b507f6741b2fc379fad678116fe3d4d4b9a1a184ab53ba36b86ad0fa66340b1ab41ad816040516106af91906112c9565b60405180910390a150565b60006103c782610954565b60006001600160a01b0382166106f1576040516322718ad960e21b8152600060048201526024016105cf565b506001600160a01b031660009081526003602052604090205490565b610715610bd2565b6106496000610c54565b610727610bd2565b610649610ca6565b6060600180546103dc90611552565b610493338383610ce9565b6040805160808101825260008082526020808301829052828401829052606083018290528482526002905291909120546001600160a01b03166107c55760405162461bcd60e51b8152602060048201526014602482015273151bdad95b88191bd95cc81b9bdd08195e1a5cdd60621b60448201526064016105cf565b506000908152600860209081526040918290208251608081018452815460ff8082168352610100820481169483019490945262010000900490921692820192909252600190910154606082015290565b6108208484846105a9565b6106333385858585610d88565b6000818152600260205260409020546060906001600160a01b031661088b5760405162461bcd60e51b8152602060048201526014602482015273151bdad95b88191bd95cc81b9bdd08195e1a5cdd60621b60448201526064016105cf565b6000610895610eb3565b905080516000036108b6575050604080516020810190915260008152919050565b806108c084610ec2565b6040516020016108d19291906116d4565b604051602081830303815290604052915050919050565b6001600160a01b03918216600090815260056020908152604080832093909416825291909152205460ff1690565b61091e610bd2565b6001600160a01b03811661094857604051631e4fbdf760e01b8152600060048201526024016105cf565b61095181610c54565b50565b6000818152600260205260408120546001600160a01b0316806103c757604051637e27328960e01b8152600481018490526024016105cf565b6106668383836001610fcb565b600654600160a01b900460ff16156106495760405163d93c066560e01b815260040160405180910390fd5b60408051608080820183526000808352602080840182905283850182905260608085018390526007548651428185015244818901528083018a90529188901b6bffffffffffffffffffffffff1916948201949094526094808201949094528551808203909401845260b401909452815191909301209091610a47600283611719565b610a5290600161172d565b90506000610a656002600885901c611719565b610a7090600161172d565b90506000610a836003601086901c611719565b610a8e90600461172d565b6040805160808101825260ff9586168152938516602085015293169282019290925242606082015295945050505050565b6104938282604051806020016040528060008152506110d1565b6000828152600260205260408120546001600160a01b0390811690831615610b0657610b068184866110e9565b6001600160a01b03811615610b4457610b23600085600080610fcb565b6001600160a01b038116600090815260036020526040902080546000190190555b6001600160a01b03851615610b73576001600160a01b0385166000908152600360205260409020805460010190555b60008481526002602052604080822080546001600160a01b0319166001600160a01b0389811691821790925591518793918516917fddf252ad1be2c89b69c2b068fc378daa952ba7f163c4a11628f55a4df523b3ef91a4949350505050565b6006546001600160a01b031633146106495760405163118cdaa760e01b81523360048201526024016105cf565b610c0761114d565b6006805460ff60a01b191690557f5db9ee0a495bf2e6ff9c91a7834c1ba4fdd244a5e8aa4e537bd38aeae4b073aa335b6040516001600160a01b03909116815260200160405180910390a1565b600680546001600160a01b038381166001600160a01b0319831681179093556040519116919082907f8be0079c531659141344cd1fd0a4f28419497f9722a3daafe3b4186f6b6457e090600090a35050565b610cae61099a565b6006805460ff60a01b1916600160a01b1790557f62e78cea01bee320cd4e420270b5ea74000d11b0c9f74754ebdbfc544b05a258610c373390565b6001600160a01b038216610d1b57604051630b61174360e31b81526001600160a01b03831660048201526024016105cf565b6001600160a01b03838116600081815260056020908152604080832094871680845294825291829020805460ff191686151590811790915591519182527f17307eab39ab6107e8899845ad3d59bd9653f200f220920489ca2b5937696c31910160405180910390a3505050565b6001600160a01b0383163b15610eac57604051630a85bd0160e11b81526001600160a01b0384169063150b7a0290610dca908890889087908790600401611740565b6020604051808303816000875af1925050508015610e05575060408051601f3d908101601f19168201909252610e029181019061177d565b60015b610e6e573d808015610e33576040519150601f19603f3d011682016040523d82523d6000602084013e610e38565b606091505b508051600003610e6657604051633250574960e11b81526001600160a01b03851660048201526024016105cf565b805160208201fd5b6001600160e01b03198116630a85bd0160e11b14610eaa57604051633250574960e11b81526001600160a01b03851660048201526024016105cf565b505b5050505050565b6060600980546103dc90611552565b606081600003610ee95750506040805180820190915260018152600360fc1b602082015290565b8160005b8115610f135780610efd816115a2565b9150610f0c9050600a8361179a565b9150610eed565b60008167ffffffffffffffff811115610f2e57610f2e611377565b6040519080825280601f01601f191660200182016040528015610f58576020820181803683370190505b5090505b8415610fc357610f6d6001836115bb565b9150610f7a600a86611719565b610f8590603061172d565b60f81b818381518110610f9a57610f9a6117ae565b60200101906001600160f81b031916908160001a905350610fbc600a8661179a565b9450610f5c565b949350505050565b8080610fdf57506001600160a01b03821615155b156110a1576000610fef84610954565b90506001600160a01b0383161580159061101b5750826001600160a01b0316816001600160a01b031614155b801561102e575061102c81846108e8565b155b156110575760405163a9fbf51f60e01b81526001600160a01b03841660048201526024016105cf565b811561109f5783856001600160a01b0316826001600160a01b03167f8c5be1e5ebec7d5bd14f71427d1e84f3dd0314c0f7b2291e5b200ac8c7c3b92560405160405180910390a45b505b5050600090815260046020526040902080546001600160a01b0319166001600160a01b0392909216919091179055565b6110db8383611177565b610666336000858585610d88565b6110f48383836111dc565b610666576001600160a01b03831661112257604051637e27328960e01b8152600481018290526024016105cf565b60405163177e802f60e01b81526001600160a01b0383166004820152602481018290526044016105cf565b600654600160a01b900460ff1661064957604051638dfc202b60e01b815260040160405180910390fd5b6001600160a01b0382166111a157604051633250574960e11b8152600060048201526024016105cf565b60006111af83836000610ad9565b90506001600160a01b03811615610666576040516339e3563760e11b8152600060048201526024016105cf565b60006001600160a01b03831615801590610fc35750826001600160a01b0316846001600160a01b03161480611216575061121684846108e8565b80610fc35750506000908152600460205260409020546001600160a01b03908116911614919050565b6001600160e01b03198116811461095157600080fd5b60006020828403121561126757600080fd5b81356112728161123f565b9392505050565b60005b8381101561129457818101518382015260200161127c565b50506000910152565b600081518084526112b5816020860160208601611279565b601f01601f19169290920160200192915050565b602081526000611272602083018461129d565b6000602082840312156112ee57600080fd5b5035919050565b80356001600160a01b038116811461130c57600080fd5b919050565b6000806040838503121561132457600080fd5b61132d836112f5565b946020939093013593505050565b60008060006060848603121561135057600080fd5b611359846112f5565b9250611367602085016112f5565b9150604084013590509250925092565b634e487b7160e01b600052604160045260246000fd5b600067ffffffffffffffff808411156113a8576113a8611377565b604051601f8501601f19908116603f011681019082821181831017156113d0576113d0611377565b816040528093508581528686860111156113e957600080fd5b858560208301376000602087830101525050509392505050565b60006020828403121561141557600080fd5b813567ffffffffffffffff81111561142c57600080fd5b8201601f8101841361143d57600080fd5b610fc38482356020840161138d565b60006020828403121561145e57600080fd5b611272826112f5565b6000806040838503121561147a57600080fd5b611483836112f5565b91506020830135801515811461149857600080fd5b809150509250929050565b600080600080608085870312156114b957600080fd5b6114c2856112f5565b93506114d0602086016112f5565b925060408501359150606085013567ffffffffffffffff8111156114f357600080fd5b8501601f8101871361150457600080fd5b6115138782356020840161138d565b91505092959194509250565b6000806040838503121561153257600080fd5b61153b836112f5565b9150611549602084016112f5565b90509250929050565b600181811c9082168061156657607f821691505b60208210810361158657634e487b7160e01b600052602260045260246000fd5b50919050565b634e487b7160e01b600052601160045260246000fd5b6000600182016115b4576115b461158c565b5060010190565b818103818111156103c7576103c761158c565b601f82111561066657600081815260208120601f850160051c810160208610156115f55750805b601f850160051c820191505b81811015610eaa57828155600101611601565b815167ffffffffffffffff81111561162e5761162e611377565b6116428161163c8454611552565b846115ce565b602080601f831160018114611677576000841561165f5750858301515b600019600386901b1c1916600185901b178555610eaa565b600085815260208120601f198616915b828110156116a657888601518255948401946001909101908401611687565b50858210156116c45787850151600019600388901b60f8161c191681555b5050505050600190811b01905550565b600083516116e6818460208801611279565b8351908301906116fa818360208801611279565b01949350505050565b634e487b7160e01b600052601260045260246000fd5b60008261172857611728611703565b500690565b808201808211156103c7576103c761158c565b6001600160a01b03858116825284166020820152604081018390526080606082018190526000906117739083018461129d565b9695505050505050565b60006020828403121561178f57600080fd5b81516112728161123f565b6000826117a9576117a9611703565b500490565b634e487b7160e01b600052603260045260246000fdfea2646970667358221220cf2c1d4f8f50497300d0964680bb0e8544ab8204b269280c3927e1776fd96ee464736f6c63430008140033",
  "linkReferences": {},
  "deployedLinkReferences": {}
}