{
  "_format": "hh-sol-artifact-1",
  "contractName": "DungeonGame",
  "sourceName": "contracts/DungeonGame.sol",
  "abi": [
    {
      "inputs": [
        {
          "internalType": "address",
          "name": "_aventurerNFT",
          "type": "address"
        },
        {
          "internalType": "address payable",
          "name": "_feeDistributor",
          "type": "address"
        },
        {
          "internalType": "address",
          "name": "_progressTracker",
          "type": "address"
        },
        {
          "internalType": "address payable",
          "name": "_rewardsPool",
          "type": "address"
        }
      ],
      "stateMutability": "nonpayable",
      "type": "constructor"
    },
    {
      "inputs": [],
      "name": "EnforcedPause",
      "type": "error"
    },
    {
      "inputs": [],
      "name": "ExpectedPause",
      "type": "error"
    },
    {
      "inputs": [
        {
          "internalType": "address",
          "name": "owner",
          "type": "address"
        }
      ],
      "name": "OwnableInvalidOwner",
      "type": "error"
    },
    {
      "inputs": [
        {
          "internalType": "address",
          "name": "account",
          "type": "address"
        }
      ],
      "name": "OwnableUnauthorizedAccount",
      "type": "error"
    },
    {
      "anonymous": false,
      "inputs": [
        {
          "indexed": false,
          "internalType": "address",
          "name": "aventurerNFT",
          "type": "address"
        },
        {
          "indexed": false,
          "internalType": "address",
          "name": "feeDistributor",
          "type": "address"
        },
        {
          "indexed": false,
          "internalType": "address",
          "name": "progressTracker",
          "type": "address"
        },
        {
          "indexed": false,
          "internalType": "address",
          "name": "rewardsPool",
          "type": "address"
        }
      ],
      "name": "ContractsUpdated",
      "type": "event"
    },
    {
      "anonymous": false,
      "inputs": [
        {
          "indexed": true,
          "internalType": "address",
          "name": "player",
          "type": "address"
        },
        {
          "indexed": true,
          "internalType": "uint256",
          "name": "tokenId",
          "type": "uint256"
        },
        {
          "indexed": false,
          "internalType": "uint8",
          "name": "currentRoom",
          "type": "uint8"
        },
        {
          "indexed": false,
          "internalType": "uint8",
          "name": "currentHP",
          "type": "uint8"
        },
        {
          "indexed": false,
          "internalType": "uint8",
          "name": "gemsCollected",
          "type": "uint8"
        },
        {
          "indexed": false,
          "internalType": "uint256",
          "name": "timestamp",
          "type": "uint256"
        }
      ],
      "name": "GameCheckpoint",
      "type": "event"
    },
    {
      "anonymous": false,
      "inputs": [
        {
          "indexed": true,
          "internalType": "address",
          "name": "player",
          "type": "address"
        },
        {
          "indexed": true,
          "internalType": "uint256",
          "name": "tokenId",
          "type": "uint256"
        },
        {
          "indexed": false,
          "internalType": "uint256",
          "name": "levelsCompleted",
          "type": "uint256"
        },
        {
          "indexed": false,
          "internalType": "uint256",
          "name": "scoreEarned",
          "type": "uint256"
        },
        {
          "indexed": false,
          "internalType": "uint256",
          "name": "timestamp",
          "type": "uint256"
        }
      ],
      "name": "GameEnded",
      "type": "event"
    },
    {
      "anonymous": false,
      "inputs": [
        {
          "indexed": true,
          "internalType": "address",
          "name": "player",
          "type": "address"
        },
        {
          "indexed": true,
          "internalType": "uint256",
          "name": "tokenId",
          "type": "uint256"
        },
        {
          "indexed": false,
          "internalType": "uint8",
          "name": "currentRoom",
          "type": "uint8"
        },
        {
          "indexed": false,
          "internalType": "uint256",
          "name": "timestamp",
          "type": "uint256"
        }
      ],
      "name": "GameForfeited",
      "type": "event"
    },
    {
      "anonymous": false,
      "inputs": [
        {
          "indexed": true,
          "internalType": "address",
          "name": "player",
          "type": "address"
        },
        {
          "indexed": true,
          "internalType": "uint256",
          "name": "tokenId",
          "type": "uint256"
        },
        {
          "indexed": false,
          "internalType": "uint256",
          "name": "timestamp",
          "type": "uint256"
        }
      ],
      "name": "GameStarted",
      "type": "event"
    },
    {
      "anonymous": false,
      "inputs": [
        {
          "indexed": true,
          "internalType": "address",
          "name": "previousOwner",
          "type": "address"
        },
        {
          "indexed": true,
          "internalType": "address",
          "name": "newOwner",
          "type": "address"
        }
      ],
      "name": "OwnershipTransferred",
      "type": "event"
    },
    {
      "anonymous": false,
      "inputs": [
        {
          "indexed": false,
          "internalType": "address",
          "name": "account",
          "type": "address"
        }
      ],
      "name": "Paused",
      "type": "event"
    },
    {
      "anonymous": false,
      "inputs": [
        {
          "indexed": true,
          "internalType": "address",
          "name": "player",
          "type": "address"
        },
        {
          "indexed": true,
          "internalType": "uint256",
          "name": "tokenId",
          "type": "uint256"
        },
        {
          "indexed": false,
          "internalType": "uint8",
          "name": "roomNumber",
          "type": "uint8"
        },
        {
          "indexed": false,
          "internalType": "uint8",
          "name": "gemsCollected",
          "type": "uint8"
        },
        {
          "indexed": false,
          "internalType": "uint256",
          "name": "timestamp",
          "type": "uint256"
        }
      ],
      "name": "PlayerDied",
      "type": "event"
    },
    {
      "anonymous": false,
      "inputs": [
        {
          "indexed": true,
          "internalType": "address",
          "name": "player",
          "type": "address"
        },
        {
          "indexed": true,
          "internalType": "uint256",
          "name": "tokenId",
          "type": "uint256"
        },
        {
          "indexed": false,
          "internalType": "uint8",
          "name": "roomNumber",
          "type": "uint8"
        },
        {
          "indexed": false,
          "internalType": "uint8",
          "name": "cardType",
          "type": "uint8"
        },
        {
          "indexed": false,
          "internalType": "uint8",
          "name": "hpRemaining",
          "type": "uint8"
        },
        {
          "indexed": false,
          "internalType": "uint8",
          "name": "gemsCollected",
          "type": "uint8"
        },
        {
          "indexed": false,
          "internalType": "uint256",
          "name": "timestamp",
          "type": "uint256"
        }
      ],
      "name": "RoomCompleted",
      "type": "event"
    },
    {
      "anonymous": false,
      "inputs": [
        {
          "indexed": false,
          "internalType": "address",
          "name": "account",
          "type": "address"
        }
      ],
      "name": "Unpaused",
      "type": "event"
    },
    {
      "inputs": [],
      "name": "BASE_SCORE_PER_LEVEL",
      "outputs": [
        {
          "internalType": "uint256",
          "name": "",
          "type": "uint256"
        }
      ],
      "stateMutability": "view",
      "type": "function"
    },
    {
      "inputs": [],
      "name": "ENTRY_FEE",
      "outputs": [
        {
          "internalType": "uint256",
          "name": "",
          "type": "uint256"
        }
      ],
      "stateMutability": "view",
      "type": "function"
    },
    {
      "inputs": [],
      "name": "GAME_COOLDOWN",
      "outputs": [
        {
          "internalType": "uint256",
          "name": "",
          "type": "uint256"
        }
      ],
      "stateMutability": "view",
      "type": "function"
    },
    {
      "inputs": [],
      "name": "MAX_DUNGEON_LEVEL",
      "outputs": [
        {
          "internalType": "uint256",
          "name": "",
          "type": "uint256"
        }
      ],
      "stateMutability": "view",
      "type": "function"
    },
    {
      "inputs": [],
      "name": "advanceWeek",
      "outputs": [],
      "stateMutability": "nonpayable",
      "type": "function"
    },
    {
      "inputs": [],
      "name": "aventurerNFT",
      "outputs": [
        {
          "internalType": "contract AventurerNFT",
          "name": "",
          "type": "address"
        }
      ],
      "stateMutability": "view",
      "type": "function"
    },
    {
      "inputs": [
        {
          "internalType": "address",
          "name": "player",
          "type": "address"
        }
      ],
      "name": "canStartGame",
      "outputs": [
        {
          "internalType": "bool",
          "name": "",
          "type": "bool"
        }
      ],
      "stateMutability": "view",
      "type": "function"
    },
    {
      "inputs": [],
      "name": "completeGame",
      "outputs": [],
      "stateMutability": "nonpayable",
      "type": "function"
    },
    {
      "inputs": [
        {
          "internalType": "address[]",
          "name": "topPlayers",
          "type": "address[]"
        }
      ],
      "name": "distributeWeeklyRewards",
      "outputs": [],
      "stateMutability": "nonpayable",
      "type": "function"
    },
    {
      "inputs": [],
      "name": "feeDistributor",
      "outputs": [
        {
          "internalType": "contract FeeDistributor",
          "name": "",
          "type": "address"
        }
      ],
      "stateMutability": "view",
      "type": "function"
    },
    {
      "inputs": [],
      "name": "forfeitGame",
      "outputs": [],
      "stateMutability": "nonpayable",
      "type": "function"
    },
    {
      "inputs": [
        {
          "internalType": "address",
          "name": "player",
          "type": "address"
        }
      ],
      "name": "getCooldownRemaining",
      "outputs": [
        {
          "internalType": "uint256",
          "name": "",
          "type": "uint256"
        }
      ],
      "stateMutability": "view",
      "type": "function"
    },
    {
      "inputs": [
        {
          "internalType": "address",
          "name": "player",
          "type": "address"
        }
      ],
      "name": "getPlayerSession",
      "outputs": [
        {
          "internalType": "uint256",
          "name": "tokenId",
          "type": "uint256"
        },
        {
          "internalType": "uint256",
          "name": "levelsCompleted",
          "type": "uint256"
        },
        {
          "internalType": "uint256",
          "name": "scoreEarned",
          "type": "uint256"
        },
        {
          "internalType": "uint256",
          "name": "timestamp",
          "type": "uint256"
        },
        {
          "internalType": "bool",
          "name": "active",
          "type": "bool"
        },
        {
          "internalType": "uint8",
          "name": "currentRoom",
          "type": "uint8"
        },
        {
          "internalType": "uint8",
          "name": "currentHP",
          "type": "uint8"
        },
        {
          "internalType": "uint8",
          "name": "gemsCollected",
          "type": "uint8"
        },
        {
          "internalType": "uint256",
          "name": "lastCheckpointTime",
          "type": "uint256"
        },
        {
          "internalType": "uint256",
          "name": "seed",
          "type": "uint256"
        }
      ],
      "stateMutability": "view",
      "type": "function"
    },
    {
      "inputs": [
        {
          "internalType": "address",
          "name": "",
          "type": "address"
        }
      ],
      "name": "lastGameTime",
      "outputs": [
        {
          "internalType": "uint256",
          "name": "",
          "type": "uint256"
        }
      ],
      "stateMutability": "view",
      "type": "function"
    },
    {
      "inputs": [
        {
          "internalType": "uint8",
          "name": "roomNumber",
          "type": "uint8"
        },
        {
          "internalType": "uint8",
          "name": "cardType",
          "type": "uint8"
        },
        {
          "internalType": "uint8",
          "name": "hpRemaining",
          "type": "uint8"
        },
        {
          "internalType": "uint8",
          "name": "gemsCollected",
          "type": "uint8"
        }
      ],
      "name": "logRoomCompletion",
      "outputs": [],
      "stateMutability": "nonpayable",
      "type": "function"
    },
    {
      "inputs": [],
      "name": "owner",
      "outputs": [
        {
          "internalType": "address",
          "name": "",
          "type": "address"
        }
      ],
      "stateMutability": "view",
      "type": "function"
    },
    {
      "inputs": [],
      "name": "pause",
      "outputs": [],
      "stateMutability": "nonpayable",
      "type": "function"
    },
    {
      "inputs": [],
      "name": "paused",
      "outputs": [
        {
          "internalType": "bool",
          "name": "",
          "type": "bool"
        }
      ],
      "stateMutability": "view",
      "type": "function"
    },
    {
      "inputs": [
        {
          "internalType": "address",
          "name": "",
          "type": "address"
        }
      ],
      "name": "playerSessions",
      "outputs": [
        {
          "internalType": "uint256",
          "name": "tokenId",
          "type": "uint256"
        },
        {
          "internalType": "uint256",
          "name": "levelsCompleted",
          "type": "uint256"
        },
        {
          "internalType": "uint256",
          "name": "scoreEarned",
          "type": "uint256"
        },
        {
          "internalType": "uint256",
          "name": "timestamp",
          "type": "uint256"
        },
        {
          "internalType": "bool",
          "name": "active",
          "type": "bool"
        },
        {
          "internalType": "uint8",
          "name": "currentRoom",
          "type": "uint8"
        },
        {
          "internalType": "uint8",
          "name": "currentHP",
          "type": "uint8"
        },
        {
          "internalType": "uint8",
          "name": "gemsCollected",
          "type": "uint8"
        },
        {
          "internalType": "uint256",
          "name": "lastCheckpointTime",
          "type": "uint256"
        },
        {
          "internalType": "uint256",
          "name": "seed",
          "type": "uint256"
        }
      ],
      "stateMutability": "view",
      "type": "function"
    },
    {
      "inputs": [],
      "name": "progressTracker",
      "outputs": [
        {
          "internalType": "contract ProgressTracker",
          "name": "",
          "type": "address"
        }
      ],
      "stateMutability": "view",
      "type": "function"
    },
    {
      "inputs": [
        {
          "internalType": "uint8",
          "name": "roomNumber",
          "type": "uint8"
        },
        {
          "internalType": "uint8",
          "name": "finalGemsCollected",
          "type": "uint8"
        }
      ],
      "name": "recordDeath",
      "outputs": [],
      "stateMutability": "nonpayable",
      "type": "function"
    },
    {
      "inputs": [],
      "name": "renounceOwnership",
      "outputs": [],
      "stateMutability": "nonpayable",
      "type": "function"
    },
    {
      "inputs": [],
      "name": "rewardsPool",
      "outputs": [
        {
          "internalType": "contract RewardsPool",
          "name": "",
          "type": "address"
        }
      ],
      "stateMutability": "view",
      "type": "function"
    },
    {
      "inputs": [
        {
          "internalType": "uint256",
          "name": "tokenId",
          "type": "uint256"
        }
      ],
      "name": "startGame",
      "outputs": [],
      "stateMutability": "payable",
      "type": "function"
    },
    {
      "inputs": [],
      "name": "totalFeesCollected",
      "outputs": [
        {
          "internalType": "uint256",
          "name": "",
          "type": "uint256"
        }
      ],
      "stateMutability": "view",
      "type": "function"
    },
    {
      "inputs": [],
      "name": "totalGamesPlayed",
      "outputs": [
        {
          "internalType": "uint256",
          "name": "",
          "type": "uint256"
        }
      ],
      "stateMutability": "view",
      "type": "function"
    },
    {
      "inputs": [
        {
          "internalType": "address",
          "name": "newOwner",
          "type": "address"
        }
      ],
      "name": "transferOwnership",
      "outputs": [],
      "stateMutability": "nonpayable",
      "type": "function"
    },
    {
      "inputs": [],
      "name": "unpause",
      "outputs": [],
      "stateMutability": "nonpayable",
      "type": "function"
    },
    {
      "inputs": [
        {
          "internalType": "uint8",
          "name": "currentRoom",
          "type": "uint8"
        },
        {
          "internalType": "uint8",
          "name": "currentHP",
          "type": "uint8"
        },
        {
          "internalType": "uint8",
          "name": "gemsCollected",
          "type": "uint8"
        }
      ],
      "name": "updateCheckpoint",
      "outputs": [],
      "stateMutability": "nonpayable",
      "type": "function"
    },
    {
      "inputs": [
        {
          "internalType": "address",
          "name": "_aventurerNFT",
          "type": "address"
        },
        {
          "internalType": "address payable",
          "name": "_feeDistributor",
          "type": "address"
        },
        {
          "internalType": "address",
          "name": "_progressTracker",
          "type": "address"
        },
        {
          "internalType": "address payable",
          "name": "_rewardsPool",
          "type": "address"
        }
      ],
      "name": "updateContracts",
      "outputs": [],
      "stateMutability": "nonpayable",
      "type": "function"
    }
  ],
  "bytecode": "0x60806040523480156200001157600080fd5b506040516200209a3803806200209a833981016040819052620000349162000285565b33806200005c57604051631e4fbdf760e01b8152600060048201526024015b60405180910390fd5b62000067816200021c565b506001600160a01b038416620000c05760405162461bcd60e51b815260206004820152601360248201527f496e76616c6964204e4654206164647265737300000000000000000000000000604482015260640162000053565b6001600160a01b038316620001185760405162461bcd60e51b815260206004820152601b60248201527f496e76616c6964206469737472696275746f7220616464726573730000000000604482015260640162000053565b6001600160a01b038216620001705760405162461bcd60e51b815260206004820152601760248201527f496e76616c696420747261636b65722061646472657373000000000000000000604482015260640162000053565b6001600160a01b038116620001c85760405162461bcd60e51b815260206004820152601460248201527f496e76616c696420706f6f6c2061646472657373000000000000000000000000604482015260640162000053565b600180546001600160a01b039586166001600160a01b0319918216179091556002805494861694821694909417909355600380549285169284169290921790915560048054919093169116179055620002ed565b600080546001600160a01b038381166001600160a01b0319831681178455604051919092169283917f8be0079c531659141344cd1fd0a4f28419497f9722a3daafe3b4186f6b6457e09190a35050565b6001600160a01b03811681146200028257600080fd5b50565b600080600080608085870312156200029c57600080fd5b8451620002a9816200026c565b6020860151909450620002bc816200026c565b6040860151909350620002cf816200026c565b6060860151909250620002e2816200026c565b939692955090935050565b611d9d80620002fd6000396000f3fe6080604052600436106101cd5760003560e01c8063715018a6116100f7578063a40bda4111610095578063d7fc347d11610064578063d7fc347d1461061c578063e5ed1d5914610649578063f2fde38b1461065c578063f6d361cc1461067c57600080fd5b8063a40bda411461059d578063ccdcef1b146105c7578063d2696438146105dc578063d6fe101e146105fc57600080fd5b80638456cb59116100d15780638456cb591461056a5780638da5cb5b1461057f5780639b2f14f21461059d5780639e12e8c8146105b257600080fd5b8063715018a61461052b5780637780ea1a146105405780637b51b4ad1461055557600080fd5b80633f4ba83a1161016f5780635c4921291161013e5780635c492129146104b45780635c975abb146104ca57806360c6d8ae146104f557806361b285421461050b57600080fd5b80633f4ba83a146102d15780634d1cbac4146102e6578063576bbd771461040d5780635b46900c1461048657600080fd5b806313d7ceb7116101ab57806313d7ceb7146102515780631ca3ce41146102715780631e88ca641461029157806329af5c2a146102b157600080fd5b80630359fea9146101d25780630b7512791461020f5780630d43e8ad14610231575b600080fd5b3480156101de57600080fd5b506004546101f2906001600160a01b031681565b6040516001600160a01b0390911681526020015b60405180910390f35b34801561021b57600080fd5b5061022f61022a366004611993565b610696565b005b34801561023d57600080fd5b506002546101f2906001600160a01b031681565b34801561025d57600080fd5b5061022f61026c3660046119ef565b610883565b34801561027d57600080fd5b5061022f61028c366004611a73565b6108f2565b34801561029d57600080fd5b5061022f6102ac366004611abe565b610ab4565b3480156102bd57600080fd5b506001546101f2906001600160a01b031681565b3480156102dd57600080fd5b5061022f610b4e565b3480156102f257600080fd5b506103ba610301366004611b0f565b6001600160a01b0316600090815260056020818152604092839020835161014081018552815480825260018301549382018490526002830154958201869052600383015460608301819052600484015460ff808216151560808601819052610100808404831660a08801819052620100008504841660c08901819052630100000090950490931660e088018190529988015490870181905260069097015461012090960186905293999698979296939590949193909190565b604080519a8b5260208b0199909952978901969096526060880194909452911515608087015260ff90811660a087015290811660c08601521660e084015261010083015261012082015261014001610206565b34801561041957600080fd5b506103ba610428366004611b0f565b60056020819052600091825260409091208054600182015460028301546003840154600485015495850154600690950154939592949193909260ff80821693610100830482169362010000840483169363010000009004909216918a565b34801561049257600080fd5b506104a66104a1366004611b0f565b610b60565b604051908152602001610206565b3480156104c057600080fd5b506104a660075481565b3480156104d657600080fd5b50600054600160a01b900460ff165b6040519015158152602001610206565b34801561050157600080fd5b506104a660085481565b34801561051757600080fd5b5061022f610526366004611b33565b610bca565b34801561053757600080fd5b5061022f610d3d565b34801561054c57600080fd5b5061022f610d4f565b34801561056157600080fd5b5061022f610e34565b34801561057657600080fd5b5061022f610ff8565b34801561058b57600080fd5b506000546001600160a01b03166101f2565b3480156105a957600080fd5b506104a6600a81565b3480156105be57600080fd5b506104a6601e81565b3480156105d357600080fd5b5061022f611008565b3480156105e857600080fd5b506104e56105f7366004611b0f565b6110d5565b34801561060857600080fd5b506003546101f2906001600160a01b031681565b34801561062857600080fd5b506104a6610637366004611b0f565b60066020526000908152604090205481565b61022f610657366004611b6c565b61112a565b34801561066857600080fd5b5061022f610677366004611b0f565b61160b565b34801561068857600080fd5b506104a66509184e72a00081565b61069e611649565b6001600160a01b0384166106ef5760405162461bcd60e51b8152602060048201526013602482015272496e76616c6964204e4654206164647265737360681b60448201526064015b60405180910390fd5b6001600160a01b0383166107455760405162461bcd60e51b815260206004820152601b60248201527f496e76616c6964206469737472696275746f722061646472657373000000000060448201526064016106e6565b6001600160a01b03821661079b5760405162461bcd60e51b815260206004820152601760248201527f496e76616c696420747261636b6572206164647265737300000000000000000060448201526064016106e6565b6001600160a01b0381166107e85760405162461bcd60e51b8152602060048201526014602482015273496e76616c696420706f6f6c206164647265737360601b60448201526064016106e6565b600180546001600160a01b038681166001600160a01b031992831681179093556002805487831690841681179091556003805487841690851681179091556004805493871693909416831790935560408051948552602085019190915283019190915260608201527f5fa24fea85a5ce115f424d206cd07e10fe6c52fd86d013949fea9654d3f62ca09060800160405180910390a150505050565b61088b611649565b600480546040516362d2a8a960e11b81526001600160a01b039091169163c5a55152916108bc918691869101611b85565b600060405180830381600087803b1580156108d657600080fd5b505af11580156108ea573d6000803e3d6000fd5b505050505050565b6108fa611676565b336000908152600560205260409020600481015460ff1661092d5760405162461bcd60e51b81526004016106e690611bd3565b600a8460ff1611156109775760405162461bcd60e51b815260206004820152601360248201527224b73b30b634b2103937b7b690373ab6b132b960691b60448201526064016106e6565b600481015460ff610100909104811690851610156109cd5760405162461bcd60e51b815260206004820152601360248201527243616e6e6f7420676f206261636b776172647360681b60448201526064016106e6565b60008360ff1611610a115760405162461bcd60e51b815260206004820152600e60248201526d141b185e595c881a5cc81919585960921b60448201526064016106e6565b60048101805462ffff00191661010060ff87811691820262ff0000191692909217620100008784169081029190911763ff00000019166301000000938716938402179093554260058501819055845460408051938452602084019590955293820192909252606081019190915233907ffeb1dfb953c33e14a93fca6c7444bad2173f6889fcb9a4cd857443892f048705906080015b60405180910390a350505050565b610abc611676565b336000908152600560205260409020600481015460ff16610aef5760405162461bcd60e51b81526004016106e690611bd3565b80546040805160ff888116825287811660208301528681168284015285166060820152426080820152905133917f9ad2a6cd73b22287da98be074ef7aa22a6ab20ae375aaf07816ad190109cb97c919081900360a00190a35050505050565b610b56611649565b610b5e6116a1565b565b6001600160a01b038116600090815260066020526040812054610b8590601e90611c11565b4210610b9357506000919050565b6001600160a01b0382166000908152600660205260409020544290610bba90601e90611c11565b610bc49190611c24565b92915050565b610bd2611676565b336000908152600560205260409020600481015460ff16610c055760405162461bcd60e51b81526004016106e690611bd3565b600a8360ff161115610c4f5760405162461bcd60e51b815260206004820152601360248201527224b73b30b634b2103937b7b690373ab6b132b960691b60448201526064016106e6565b60048101805460ff1916905560ff8316610c6a576000610c75565b610c75600184611c37565b60ff90811660018301556004820180548483166301000000810263ffff00001990921691909117909155600060028401558254604080519387168452602084019290925242838301529051909133917ff4f873a3e94868732ff18f447fec7f5ead1a781d57820d0b808fb59cfe5faa5e9181900360600190a3805460018201546040805191825260006020830152429082015233907fda04579233d5de6d4eec1087112e9f813aa31d9128522461b14ee7bc63f46d57906060015b60405180910390a3505050565b610d45611649565b610b5e60006116f6565b610d57611676565b336000908152600560205260409020600481015460ff16610d8a5760405162461bcd60e51b81526004016106e690611bd3565b60048101805460ff198116909155600060018301819055600283015581546040805161010090930460ff168084524260208501529233917f6bee7937347de27c25493ff5033ea850d8648941b83b5e2d007aec9114cbdb99910160405180910390a3815460408051600080825260208201524281830152905133917fda04579233d5de6d4eec1087112e9f813aa31d9128522461b14ee7bc63f46d57919081900360600190a35050565b610e3c611676565b336000908152600560205260409020600481015460ff16610e6f5760405162461bcd60e51b81526004016106e690611bd3565b600154815460405163a588915f60e01b815260048101919091526000916001600160a01b03169063a588915f90602401608060405180830381865afa158015610ebc573d6000803e3d6000fd5b505050506040513d601f19601f82011682018060405250810190610ee09190611c50565b90506000610f09826000015160ff16836020015160ff16846040015160ff168660000154611746565b90506000610f2e82846000015160ff16856020015160ff16866040015160ff16611877565b60018501839055600285018190556004808601805460ff191690556003546040516319765dc960e21b81523392810192909252602482018390529192506001600160a01b03909116906365d9772490604401600060405180830381600087803b158015610f9a57600080fd5b505af1158015610fae573d6000803e3d6000fd5b50508554604080518681526020810186905242918101919091529092503391507fda04579233d5de6d4eec1087112e9f813aa31d9128522461b14ee7bc63f46d5790606001610aa6565b611000611649565b610b5e611911565b611010611649565b600360009054906101000a90046001600160a01b03166001600160a01b031663ccdcef1b6040518163ffffffff1660e01b8152600401600060405180830381600087803b15801561106057600080fd5b505af1158015611074573d6000803e3d6000fd5b5050600480546040805163ccdcef1b60e01b815290516001600160a01b03909216945063ccdcef1b9350808301926000929182900301818387803b1580156110bb57600080fd5b505af11580156110cf573d6000803e3d6000fd5b50505050565b6001600160a01b03811660009081526005602052604081206004015460ff16158015610bc457506001600160a01b03821660009081526006602052604090205461112190601e90611c11565b42101592915050565b611132611676565b6509184e72a000341461117d5760405162461bcd60e51b8152602060048201526013602482015272496e636f727265637420656e7472792066656560681b60448201526064016106e6565b6001546040516331a9108f60e11b81526004810183905233916001600160a01b031690636352211e90602401602060405180830381865afa1580156111c6573d6000803e3d6000fd5b505050506040513d601f19601f820116820180604052508101906111ea9190611cdc565b6001600160a01b0316146112325760405162461bcd60e51b815260206004820152600f60248201526e2737ba103a37b5b2b71037bbb732b960891b60448201526064016106e6565b3360009081526005602052604090206004015460ff161561128b5760405162461bcd60e51b815260206004820152601360248201527247616d6520616c72656164792061637469766560681b60448201526064016106e6565b336000908152600660205260409020546112a790601e90611c11565b4210156112ee5760405162461bcd60e51b815260206004820152601560248201527410dbdbdb191bdddb881b9bdd08199a5b9a5cda1959605a1b60448201526064016106e6565b600260009054906101000a90046001600160a01b03166001600160a01b03166386d1f7826509184e72a0006040518263ffffffff1660e01b81526004016000604051808303818588803b15801561134457600080fd5b505af1158015611358573d6000803e3d6000fd5b50505050506509184e72a000600860008282546113759190611c11565b90915550506007546040516000916113c7914291449133918791602001948552602085019390935260609190911b6bffffffffffffffffffffffff191660408401526054830152607482015260940190565b60408051808303601f1901815290829052805160209091012060015463a588915f60e01b8352600483018590529092506000916001600160a01b039091169063a588915f90602401608060405180830381865afa15801561142c573d6000803e3d6000fd5b505050506040513d601f19601f820116820180604052508101906114509190611c50565b90506040518061014001604052808481526020016000815260200160008152602001428152602001600115158152602001600160ff168152602001826040015160ff168152602001600060ff1681526020014281526020018381525060056000336001600160a01b03166001600160a01b031681526020019081526020016000206000820151816000015560208201518160010155604082015181600201556060820151816003015560808201518160040160006101000a81548160ff02191690831515021790555060a08201518160040160016101000a81548160ff021916908360ff16021790555060c08201518160040160026101000a81548160ff021916908360ff16021790555060e08201518160040160036101000a81548160ff021916908360ff160217905550610100820151816005015561012082015181600601559050504260066000336001600160a01b03166001600160a01b0316815260200190815260200160002081905550600760008154809291906115d290611cf9565b9091555050604051428152839033907f2ebc740a82c0c6454a29c8aa9db57c66257e2f17d38a783c83c83dd49f52e0fb90602001610d30565b611613611649565b6001600160a01b03811661163d57604051631e4fbdf760e01b8152600060048201526024016106e6565b611646816116f6565b50565b6000546001600160a01b03163314610b5e5760405163118cdaa760e01b81523360048201526024016106e6565b600054600160a01b900460ff1615610b5e5760405163d93c066560e01b815260040160405180910390fd5b6116a9611954565b6000805460ff60a01b191690557f5db9ee0a495bf2e6ff9c91a7834c1ba4fdd244a5e8aa4e537bd38aeae4b073aa335b6040516001600160a01b03909116815260200160405180910390a1565b600080546001600160a01b038381166001600160a01b0319831681178455604051919092169283917f8be0079c531659141344cd1fd0a4f28419497f9722a3daafe3b4186f6b6457e09190a35050565b60008083611755866002611d12565b611760886003611d12565b61176a9190611c11565b6117749190611c11565b604080514260208201524491810191909152606080820186905233901b6bffffffffffffffffffffffff191660808201526094810182905290915060009060649060b4016040516020818303038152906040528051906020012060001c6117db9190611d3f565b9050600060076117ec600985611c24565b6117f7906064611d12565b6118019190611d53565b905060008183101561182a57611818600484611d3f565b611823906007611c11565b905061186b565b61183582601e611c11565b83101561185257611847600384611d3f565b611823906004611c11565b61185d600384611d3f565b611868906001611c11565b90505b98975050505050505050565b600080611885600a87611d12565b905060006006846118968789611c11565b6118a09190611c11565b6118aa9190611c24565b6118b5906002611d12565b9050600060646118c58385611d12565b6118cf9190611d53565b90506000600a89106118e3575060326118ef565b600789106118ef575060145b806118fa8386611c11565b6119049190611c11565b9998505050505050505050565b611919611676565b6000805460ff60a01b1916600160a01b1790557f62e78cea01bee320cd4e420270b5ea74000d11b0c9f74754ebdbfc544b05a2586116d93390565b600054600160a01b900460ff16610b5e57604051638dfc202b60e01b815260040160405180910390fd5b6001600160a01b038116811461164657600080fd5b600080600080608085870312156119a957600080fd5b84356119b48161197e565b935060208501356119c48161197e565b925060408501356119d48161197e565b915060608501356119e48161197e565b939692955090935050565b60008060208385031215611a0257600080fd5b823567ffffffffffffffff80821115611a1a57600080fd5b818501915085601f830112611a2e57600080fd5b813581811115611a3d57600080fd5b8660208260051b8501011115611a5257600080fd5b60209290920196919550909350505050565b60ff8116811461164657600080fd5b600080600060608486031215611a8857600080fd5b8335611a9381611a64565b92506020840135611aa381611a64565b91506040840135611ab381611a64565b809150509250925092565b60008060008060808587031215611ad457600080fd5b8435611adf81611a64565b93506020850135611aef81611a64565b92506040850135611aff81611a64565b915060608501356119e481611a64565b600060208284031215611b2157600080fd5b8135611b2c8161197e565b9392505050565b60008060408385031215611b4657600080fd5b8235611b5181611a64565b91506020830135611b6181611a64565b809150509250929050565b600060208284031215611b7e57600080fd5b5035919050565b60208082528181018390526000908460408401835b86811015611bc8578235611bad8161197e565b6001600160a01b031682529183019190830190600101611b9a565b509695505050505050565b6020808252600e908201526d4e6f206163746976652067616d6560901b604082015260600190565b634e487b7160e01b600052601160045260246000fd5b80820180821115610bc457610bc4611bfb565b81810381811115610bc457610bc4611bfb565b60ff8281168282160390811115610bc457610bc4611bfb565b600060808284031215611c6257600080fd5b6040516080810181811067ffffffffffffffff82111715611c9357634e487b7160e01b600052604160045260246000fd5b6040528251611ca181611a64565b81526020830151611cb181611a64565b60208201526040830151611cc481611a64565b60408201526060928301519281019290925250919050565b600060208284031215611cee57600080fd5b8151611b2c8161197e565b600060018201611d0b57611d0b611bfb565b5060010190565b8082028115828204841417610bc457610bc4611bfb565b634e487b7160e01b600052601260045260246000fd5b600082611d4e57611d4e611d29565b500690565b600082611d6257611d62611d29565b50049056fea26469706673582212209a112f4a99bf005741a4868c144f2d631c0e00e72e0caf6f6920f9133ca6c5ac64736f6c63430008140033",
  "linkReferences": {},
  "deployedLinkReferences": {}
}