{
  "_format": "hh-sol-artifact-1",
  "contractName": "ProgressTracker",
  "sourceName": "contracts/ProgressTracker.sol",
  "abi": [
    {
      "inputs": [],
      "stateMutability": "nonpayable",
      "type": "constructor"
    },
    {
      "inputs": [],
      "name": "EnforcedPause",
      "type": "error"
    },
    {
      "inputs": [],
      "name": "ExpectedPause",
      "type": "error"
    },
    {
      "inputs": [
        {
          "internalType": "address",
          "name": "owner",
          "type": "address"
        }
      ],
      "name": "OwnableInvalidOwner",
      "type": "error"
    },
    {
      "inputs": [
        {
          "internalType": "address",
          "name": "account",
          "type": "address"
        }
      ],
      "name": "OwnableUnauthorizedAccount",
      "type": "error"
    },
    {
      "anonymous": false,
      "inputs": [
        {
          "indexed": true,
          "internalType": "address",
          "name": "oldContract",
          "type": "address"
        },
        {
          "indexed": true,
          "internalType": "address",
          "name": "newContract",
          "type": "address"
        }
      ],
      "name": "GameContractUpdated",
      "type": "event"
    },
    {
      "anonymous": false,
      "inputs": [
        {
          "indexed": true,
          "internalType": "uint256",
          "name": "weekNumber",
          "type": "uint256"
        },
        {
          "indexed": false,
          "internalType": "address[]",
          "name": "topPlayers",
          "type": "address[]"
        }
      ],
      "name": "LeaderboardFinalized",
      "type": "event"
    },
    {
      "anonymous": false,
      "inputs": [
        {
          "indexed": true,
          "internalType": "address",
          "name": "previousOwner",
          "type": "address"
        },
        {
          "indexed": true,
          "internalType": "address",
          "name": "newOwner",
          "type": "address"
        }
      ],
      "name": "OwnershipTransferred",
      "type": "event"
    },
    {
      "anonymous": false,
      "inputs": [
        {
          "indexed": false,
          "internalType": "address",
          "name": "account",
          "type": "address"
        }
      ],
      "name": "Paused",
      "type": "event"
    },
    {
      "anonymous": false,
      "inputs": [
        {
          "indexed": true,
          "internalType": "address",
          "name": "oldContract",
          "type": "address"
        },
        {
          "indexed": true,
          "internalType": "address",
          "name": "newContract",
          "type": "address"
        }
      ],
      "name": "RewardsPoolContractUpdated",
      "type": "event"
    },
    {
      "anonymous": false,
      "inputs": [
        {
          "indexed": true,
          "internalType": "address",
          "name": "player",
          "type": "address"
        },
        {
          "indexed": false,
          "internalType": "uint256",
          "name": "scoreAdded",
          "type": "uint256"
        },
        {
          "indexed": false,
          "internalType": "uint256",
          "name": "newTotalScore",
          "type": "uint256"
        },
        {
          "indexed": false,
          "internalType": "uint256",
          "name": "newWeeklyScore",
          "type": "uint256"
        },
        {
          "indexed": false,
          "internalType": "uint256",
          "name": "weekNumber",
          "type": "uint256"
        }
      ],
      "name": "ScoreUpdated",
      "type": "event"
    },
    {
      "anonymous": false,
      "inputs": [
        {
          "indexed": false,
          "internalType": "address",
          "name": "account",
          "type": "address"
        }
      ],
      "name": "Unpaused",
      "type": "event"
    },
    {
      "anonymous": false,
      "inputs": [
        {
          "indexed": true,
          "internalType": "uint256",
          "name": "oldWeek",
          "type": "uint256"
        },
        {
          "indexed": true,
          "internalType": "uint256",
          "name": "newWeek",
          "type": "uint256"
        }
      ],
      "name": "WeekAdvanced",
      "type": "event"
    },
    {
      "inputs": [
        {
          "internalType": "uint256",
          "name": "",
          "type": "uint256"
        }
      ],
      "name": "activePlayers",
      "outputs": [
        {
          "internalType": "address",
          "name": "",
          "type": "address"
        }
      ],
      "stateMutability": "view",
      "type": "function"
    },
    {
      "inputs": [],
      "name": "advanceWeek",
      "outputs": [],
      "stateMutability": "nonpayable",
      "type": "function"
    },
    {
      "inputs": [],
      "name": "currentWeek",
      "outputs": [
        {
          "internalType": "uint256",
          "name": "",
          "type": "uint256"
        }
      ],
      "stateMutability": "view",
      "type": "function"
    },
    {
      "inputs": [],
      "name": "gameContract",
      "outputs": [
        {
          "internalType": "address",
          "name": "",
          "type": "address"
        }
      ],
      "stateMutability": "view",
      "type": "function"
    },
    {
      "inputs": [],
      "name": "getActivePlayerCount",
      "outputs": [
        {
          "internalType": "uint256",
          "name": "",
          "type": "uint256"
        }
      ],
      "stateMutability": "view",
      "type": "function"
    },
    {
      "inputs": [],
      "name": "getCurrentWeekPlayers",
      "outputs": [
        {
          "internalType": "address[]",
          "name": "",
          "type": "address[]"
        }
      ],
      "stateMutability": "view",
      "type": "function"
    },
    {
      "inputs": [
        {
          "internalType": "address",
          "name": "player",
          "type": "address"
        }
      ],
      "name": "getPlayerProgress",
      "outputs": [
        {
          "internalType": "uint256",
          "name": "totalScore",
          "type": "uint256"
        },
        {
          "internalType": "uint256",
          "name": "weeklyScore",
          "type": "uint256"
        },
        {
          "internalType": "uint256",
          "name": "gamesPlayed",
          "type": "uint256"
        },
        {
          "internalType": "uint256",
          "name": "lastPlayedWeek",
          "type": "uint256"
        },
        {
          "internalType": "bool",
          "name": "isActive",
          "type": "bool"
        }
      ],
      "stateMutability": "view",
      "type": "function"
    },
    {
      "inputs": [
        {
          "internalType": "uint256",
          "name": "weekNumber",
          "type": "uint256"
        }
      ],
      "name": "getTopPlayers",
      "outputs": [
        {
          "internalType": "address[]",
          "name": "topPlayers",
          "type": "address[]"
        }
      ],
      "stateMutability": "nonpayable",
      "type": "function"
    },
    {
      "inputs": [
        {
          "internalType": "uint256",
          "name": "weekNumber",
          "type": "uint256"
        }
      ],
      "name": "getWeeklyLeaderboard",
      "outputs": [
        {
          "internalType": "address[]",
          "name": "",
          "type": "address[]"
        }
      ],
      "stateMutability": "view",
      "type": "function"
    },
    {
      "inputs": [
        {
          "internalType": "address",
          "name": "",
          "type": "address"
        }
      ],
      "name": "isActivePlayer",
      "outputs": [
        {
          "internalType": "bool",
          "name": "",
          "type": "bool"
        }
      ],
      "stateMutability": "view",
      "type": "function"
    },
    {
      "inputs": [
        {
          "internalType": "address",
          "name": "player",
          "type": "address"
        }
      ],
      "name": "isPlayerActive",
      "outputs": [
        {
          "internalType": "bool",
          "name": "",
          "type": "bool"
        }
      ],
      "stateMutability": "view",
      "type": "function"
    },
    {
      "inputs": [],
      "name": "owner",
      "outputs": [
        {
          "internalType": "address",
          "name": "",
          "type": "address"
        }
      ],
      "stateMutability": "view",
      "type": "function"
    },
    {
      "inputs": [],
      "name": "pause",
      "outputs": [],
      "stateMutability": "nonpayable",
      "type": "function"
    },
    {
      "inputs": [],
      "name": "paused",
      "outputs": [
        {
          "internalType": "bool",
          "name": "",
          "type": "bool"
        }
      ],
      "stateMutability": "view",
      "type": "function"
    },
    {
      "inputs": [
        {
          "internalType": "address",
          "name": "",
          "type": "address"
        }
      ],
      "name": "playerProgress",
      "outputs": [
        {
          "internalType": "uint256",
          "name": "totalScore",
          "type": "uint256"
        },
        {
          "internalType": "uint256",
          "name": "weeklyScore",
          "type": "uint256"
        },
        {
          "internalType": "uint256",
          "name": "gamesPlayed",
          "type": "uint256"
        },
        {
          "internalType": "uint256",
          "name": "lastPlayedWeek",
          "type": "uint256"
        },
        {
          "internalType": "bool",
          "name": "isActive",
          "type": "bool"
        }
      ],
      "stateMutability": "view",
      "type": "function"
    },
    {
      "inputs": [],
      "name": "renounceOwnership",
      "outputs": [],
      "stateMutability": "nonpayable",
      "type": "function"
    },
    {
      "inputs": [],
      "name": "rewardsPoolContract",
      "outputs": [
        {
          "internalType": "address",
          "name": "",
          "type": "address"
        }
      ],
      "stateMutability": "view",
      "type": "function"
    },
    {
      "inputs": [
        {
          "internalType": "address",
          "name": "_gameContract",
          "type": "address"
        }
      ],
      "name": "setGameContract",
      "outputs": [],
      "stateMutability": "nonpayable",
      "type": "function"
    },
    {
      "inputs": [
        {
          "internalType": "address",
          "name": "_rewardsPoolContract",
          "type": "address"
        }
      ],
      "name": "setRewardsPoolContract",
      "outputs": [],
      "stateMutability": "nonpayable",
      "type": "function"
    },
    {
      "inputs": [],
      "name": "totalPlayers",
      "outputs": [
        {
          "internalType": "uint256",
          "name": "",
          "type": "uint256"
        }
      ],
      "stateMutability": "view",
      "type": "function"
    },
    {
      "inputs": [
        {
          "internalType": "address",
          "name": "newOwner",
          "type": "address"
        }
      ],
      "name": "transferOwnership",
      "outputs": [],
      "stateMutability": "nonpayable",
      "type": "function"
    },
    {
      "inputs": [],
      "name": "unpause",
      "outputs": [],
      "stateMutability": "nonpayable",
      "type": "function"
    },
    {
      "inputs": [
        {
          "internalType": "address",
          "name": "player",
          "type": "address"
        },
        {
          "internalType": "uint256",
          "name": "scoreToAdd",
          "type": "uint256"
        }
      ],
      "name": "updateScore",
      "outputs": [],
      "stateMutability": "nonpayable",
      "type": "function"
    },
    {
      "inputs": [
        {
          "internalType": "uint256",
          "name": "",
          "type": "uint256"
        },
        {
          "internalType": "uint256",
          "name": "",
          "type": "uint256"
        }
      ],
      "name": "weeklyLeaderboard",
      "outputs": [
        {
          "internalType": "address",
          "name": "",
          "type": "address"
        }
      ],
      "stateMutability": "view",
      "type": "function"
    }
  ],
  "bytecode": "0x608060405234801561001057600080fd5b50338061003757604051631e4fbdf760e01b81526000600482015260240160405180910390fd5b6100408161004b565b50600160065561009b565b600080546001600160a01b038381166001600160a01b0319831681178455604051919092169283917f8be0079c531659141344cd1fd0a4f28419497f9722a3daafe3b4186f6b6457e09190a35050565b611462806100aa6000396000f3fe608060405234801561001057600080fd5b50600436106101585760003560e01c80638da5cb5b116100c3578063ddd0c22c1161007c578063ddd0c22c146102e1578063ec7eba05146102e9578063f2fde38b14610354578063f3d4c43814610367578063f60cdcf61461037a578063f635c69b1461038357600080fd5b80638da5cb5b146102685780639e57538e1461028d578063b55f108f146102a0578063ba3c0067146102b3578063ccdcef1b146102c6578063d3f33009146102ce57600080fd5b80635c975abb116101155780635c975abb1461020057806365d977241461021257806366ab837e14610225578063701d4ad914610238578063715018a6146102585780638456cb591461026057600080fd5b806306575c891461015d5780633a08aea8146101795780633f4ba83a146101b8578063405ebd4d146101c25780634e347f2a146101d557806354a7d931146101dd575b600080fd5b61016660065481565b6040519081526020015b60405180910390f35b6101a86101873660046112e4565b6001600160a01b031660009081526003602052604090206004015460ff1690565b6040519015158152602001610170565b6101c06103f6565b005b6101c06101d03660046112e4565b610408565b600454610166565b6101a86101eb3660046112e4565b60056020526000908152604090205460ff1681565b600054600160a01b900460ff166101a8565b6101c0610220366004611306565b6104af565b6101c06102333660046112e4565b610740565b61024b610246366004611330565b6107e2565b6040516101709190611349565b6101c061084e565b6101c0610860565b6000546001600160a01b03165b6040516001600160a01b039091168152602001610170565b61027561029b366004611396565b610870565b6102756102ae366004611330565b6108a8565b61024b6102c1366004611330565b6108d2565b6101c0610b61565b600154610275906001600160a01b031681565b61024b610c00565b61032a6102f73660046112e4565b60036020819052600091825260409091208054600182015460028301549383015460049093015491939092909160ff1685565b6040805195865260208601949094529284019190915260608301521515608082015260a001610170565b6101c06103623660046112e4565b610d98565b600254610275906001600160a01b031681565b61016660085481565b61032a6103913660046112e4565b6001600160a01b0316600090815260036020818152604092839020835160a081018552815480825260018301549382018490526002830154958201869052938201546060820181905260049092015460ff161515608090910181905292949193929091565b6103fe610dd6565b610406610e03565b565b610410610dd6565b6001600160a01b03811661045d5760405162461bcd60e51b815260206004820152600f60248201526e496e76616c6964206164647265737360881b60448201526064015b60405180910390fd5b600180546001600160a01b038381166001600160a01b0319831681179093556040519116919082907f434ae977d64160d9eededf3cedb7f1a94f4e20c163eaec99c58e4eb61825d40890600090a35050565b6001546001600160a01b031633146104fe5760405162461bcd60e51b815260206004820152601260248201527113db9b1e4819d85b594818dbdb9d1c9858dd60721b6044820152606401610454565b610506610e58565b6001600160a01b0382166105555760405162461bcd60e51b8152602060048201526016602482015275496e76616c696420706c61796572206164647265737360501b6044820152606401610454565b600081116105a55760405162461bcd60e51b815260206004820152601c60248201527f53636f7265206d7573742062652067726561746572207468616e2030000000006044820152606401610454565b6001600160a01b0382166000908152600360205260409020600481015460ff166106715760048101805460ff19166001179055600880549060006105e8836113ce565b90915550506001600160a01b03831660009081526005602052604090205460ff16610671576004805460018082019092557f8a35acfbc15ff81a39ae7d344fd709f28e8600b4aa8c65c6b64bfe7fe36bd19b0180546001600160a01b0319166001600160a01b0386169081179091556000908152600560205260409020805460ff191690911790555b6006548160030154101561068f576000600182015560065460038201555b818160000160008282546106a391906113e7565b92505081905550818160010160008282546106be91906113e7565b90915550506002810180549060006106d5836113ce565b9091555050805460018201546006546040516001600160a01b038716937fa34a8b326a71cee8afee1a590ad39f41e35e9be714cc6a3b1b081aedc4536b30936107339388845260208401929092526040830152606082015260800190565b60405180910390a2505050565b610748610dd6565b6001600160a01b0381166107905760405162461bcd60e51b815260206004820152600f60248201526e496e76616c6964206164647265737360881b6044820152606401610454565b600280546001600160a01b038381166001600160a01b0319831681179093556040519116919082907f5b2c1d3e289d9aee2c0536ea1f9195db15005aa0632abdcfb3729b220b52e00390600090a35050565b60008181526007602090815260409182902080548351818402810184019094528084526060939283018282801561084257602002820191906000526020600020905b81546001600160a01b03168152600190910190602001808311610824575b50505050509050919050565b610856610dd6565b6104066000610e83565b610868610dd6565b610406610ed3565b6007602052816000526040600020818154811061088c57600080fd5b6000918252602090912001546001600160a01b03169150829050565b600481815481106108b857600080fd5b6000918252602090912001546001600160a01b0316905081565b6002546060906001600160a01b031633146109235760405162461bcd60e51b815260206004820152601160248201527013db9b1e481c995dd85c991cc81c1bdbdb607a1b6044820152606401610454565b600082156109315782610935565b6006545b60008181526007602052604090205490915015610a5f576000818152600760209081526040808320805482518185028101850190935280835291929091908301828280156109ac57602002820191906000526020600020905b81546001600160a01b0316815260019091019060200180831161098e575b50939450600a93506109bd92505050565b6040519080825280602002602001820160405280156109e6578160200160208202803683370190505b50925060005b600a811080156109fc5750815181105b15610a5757818181518110610a1357610a13611416565b6020026020010151848281518110610a2d57610a2d611416565b6001600160a01b039092166020928302919091019091015280610a4f816113ce565b9150506109ec565b505050919050565b6000610a6a82610f16565b60008381526007602090815260409091208251929350610a8e929091840190611253565b5060408051600a808252610160820190925290602082016101408036833701905050925060005b600a81108015610ac55750815181105b15610b2057818181518110610adc57610adc611416565b6020026020010151848281518110610af657610af6611416565b6001600160a01b039092166020928302919091019091015280610b18816113ce565b915050610ab5565b50817f9c37d9b7300054bead7f2aa8b306b7f9ccb0ecc2b35b08a31f697444cc51754784604051610b519190611349565b60405180910390a250505b919050565b6001546001600160a01b03163314610bb05760405162461bcd60e51b815260206004820152601260248201527113db9b1e4819d85b594818dbdb9d1c9858dd60721b6044820152606401610454565b610bb8610e58565b600680549081906000610bca836113ce565b909155505060065460405182907f5327be9bf1e50f7a10c3730adf606c77f9959af4de94faa28d580662d27c985690600090a350565b60606000805b600454811015610c77576006546003600060048481548110610c2a57610c2a611416565b60009182526020808320909101546001600160a01b0316835282019290925260400190206003015403610c655781610c61816113ce565b9250505b80610c6f816113ce565b915050610c06565b5060008167ffffffffffffffff811115610c9357610c93611400565b604051908082528060200260200182016040528015610cbc578160200160208202803683370190505b5090506000805b600454811015610d8f576006546003600060048481548110610ce757610ce7611416565b60009182526020808320909101546001600160a01b0316835282019290925260400190206003015403610d7d5760048181548110610d2757610d27611416565b9060005260206000200160009054906101000a90046001600160a01b0316838381518110610d5757610d57611416565b6001600160a01b039092166020928302919091019091015281610d79816113ce565b9250505b80610d87816113ce565b915050610cc3565b50909392505050565b610da0610dd6565b6001600160a01b038116610dca57604051631e4fbdf760e01b815260006004820152602401610454565b610dd381610e83565b50565b6000546001600160a01b031633146104065760405163118cdaa760e01b8152336004820152602401610454565b610e0b611229565b6000805460ff60a01b191690557f5db9ee0a495bf2e6ff9c91a7834c1ba4fdd244a5e8aa4e537bd38aeae4b073aa335b6040516001600160a01b03909116815260200160405180910390a1565b600054600160a01b900460ff16156104065760405163d93c066560e01b815260040160405180910390fd5b600080546001600160a01b038381166001600160a01b0319831681178455604051919092169283917f8be0079c531659141344cd1fd0a4f28419497f9722a3daafe3b4186f6b6457e09190a35050565b610edb610e58565b6000805460ff60a01b1916600160a01b1790557f62e78cea01bee320cd4e420270b5ea74000d11b0c9f74754ebdbfc544b05a258610e3b3390565b60045460609060009067ffffffffffffffff811115610f3757610f37611400565b604051908082528060200260200182016040528015610f60578160200160208202803683370190505b5090506000805b60045481101561100357600060048281548110610f8657610f86611416565b60009182526020808320909101546001600160a01b031680835260039182905260409092200154909150869003610ff05780848481518110610fca57610fca611416565b6001600160a01b039092166020928302919091019091015282610fec816113ce565b9350505b5080610ffb816113ce565b915050610f67565b5060008167ffffffffffffffff81111561101f5761101f611400565b604051908082528060200260200182016040528015611048578160200160208202803683370190505b50905060005b828110156110ac5783818151811061106857611068611416565b602002602001015182828151811061108257611082611416565b6001600160a01b0390921660209283029190910190910152806110a4816113ce565b91505061104e565b5060005b81518110156112205760006110c68260016113e7565b90505b825181101561120d57600360008483815181106110e8576110e8611416565b60200260200101516001600160a01b03166001600160a01b03168152602001908152602001600020600101546003600085858151811061112a5761112a611416565b60200260200101516001600160a01b03166001600160a01b031681526020019081526020016000206001015410156111fb57600083838151811061117057611170611416565b6020026020010151905083828151811061118c5761118c611416565b60200260200101518484815181106111a6576111a6611416565b60200260200101906001600160a01b031690816001600160a01b031681525050808483815181106111d9576111d9611416565b60200260200101906001600160a01b031690816001600160a01b031681525050505b80611205816113ce565b9150506110c9565b5080611218816113ce565b9150506110b0565b50949350505050565b600054600160a01b900460ff1661040657604051638dfc202b60e01b815260040160405180910390fd5b8280548282559060005260206000209081019282156112a8579160200282015b828111156112a857825182546001600160a01b0319166001600160a01b03909116178255602090920191600190910190611273565b506112b49291506112b8565b5090565b5b808211156112b457600081556001016112b9565b80356001600160a01b0381168114610b5c57600080fd5b6000602082840312156112f657600080fd5b6112ff826112cd565b9392505050565b6000806040838503121561131957600080fd5b611322836112cd565b946020939093013593505050565b60006020828403121561134257600080fd5b5035919050565b6020808252825182820181905260009190848201906040850190845b8181101561138a5783516001600160a01b031683529284019291840191600101611365565b50909695505050505050565b600080604083850312156113a957600080fd5b50508035926020909101359150565b634e487b7160e01b600052601160045260246000fd5b6000600182016113e0576113e06113b8565b5060010190565b808201808211156113fa576113fa6113b8565b92915050565b634e487b7160e01b600052604160045260246000fd5b634e487b7160e01b600052603260045260246000fdfea2646970667358221220735b4a423e9c8c4c57cd13d8fad7908abc88ce87f0b94704f6af14755763ffb464736f6c63430008140033",
  "linkReferences": {},
  "deployedLinkReferences": {}
}